{
  "_format": "hh-sol-artifact-1",
  "contractName": "TrustChain",
  "sourceName": "contracts/TrustChain.sol",
  "abi": [
    {
      "anonymous": false,
      "inputs": [
        {
          "indexed": false,
          "internalType": "string",
          "name": "studentId",
          "type": "string"
        },
        {
          "indexed": false,
          "internalType": "string",
          "name": "studentName",
          "type": "string"
        },
        {
          "indexed": false,
          "internalType": "string",
          "name": "certificateHash",
          "type": "string"
        }
      ],
      "name": "CertificateRecorded",
      "type": "event"
    },
    {
      "inputs": [
        {
          "internalType": "string",
          "name": "",
          "type": "string"
        }
      ],
      "name": "certificates",
      "outputs": [
        {
          "internalType": "string",
          "name": "studentName",
          "type": "string"
        },
        {
          "internalType": "string",
          "name": "certificateHash",
          "type": "string"
        },
        {
          "internalType": "uint256",
          "name": "timestamp",
          "type": "uint256"
        }
      ],
      "stateMutability": "view",
      "type": "function"
    },
    {
      "inputs": [
        {
          "internalType": "string",
          "name": "studentId",
          "type": "string"
        }
      ],
      "name": "getCertificate",
      "outputs": [
        {
          "components": [
            {
              "internalType": "string",
              "name": "studentName",
              "type": "string"
            },
            {
              "internalType": "string",
              "name": "certificateHash",
              "type": "string"
            },
            {
              "internalType": "uint256",
              "name": "timestamp",
              "type": "uint256"
            }
          ],
          "internalType": "struct TrustChain.Certificate",
          "name": "",
          "type": "tuple"
        }
      ],
      "stateMutability": "view",
      "type": "function"
    },
    {
      "inputs": [
        {
          "internalType": "string",
          "name": "studentId",
          "type": "string"
        },
        {
          "internalType": "string",
          "name": "studentName",
          "type": "string"
        },
        {
          "internalType": "string",
          "name": "certificateHash",
          "type": "string"
        }
      ],
      "name": "recordCertificate",
      "outputs": [],
      "stateMutability": "nonpayable",
      "type": "function"
    }
  ],
  "bytecode": "0x608060405234801561001057600080fd5b50610bf9806100206000396000f3fe608060405234801561001057600080fd5b50600436106100415760003560e01c80638f2b91ea146100465780638f9289a614610078578063ed0f2e7514610094575b600080fd5b610060600480360381019061005b91906105a7565b6100c4565b60405161006f93929190610688565b60405180910390f35b610092600480360381019061008d91906106cd565b610214565b005b6100ae60048036038101906100a991906105a7565b6102c6565b6040516100bb9190610824565b60405180910390f35b6000818051602081018201805184825260208301602085012081835280955050505050506000915090508060000180546100fd90610875565b80601f016020809104026020016040519081016040528092919081815260200182805461012990610875565b80156101765780601f1061014b57610100808354040283529160200191610176565b820191906000526020600020905b81548152906001019060200180831161015957829003601f168201915b50505050509080600101805461018b90610875565b80601f01602080910402602001604051908101604052809291908181526020018280546101b790610875565b80156102045780601f106101d957610100808354040283529160200191610204565b820191906000526020600020905b8154815290600101906020018083116101e757829003601f168201915b5050505050908060020154905083565b60405180606001604052808381526020018281526020014281525060008460405161023f91906108e2565b908152602001604051809103902060008201518160000190816102629190610aa5565b5060208201518160010190816102789190610aa5565b50604082015181600201559050507f0f871c3e3609f10b16b20c290a9b6de5f771a9fc20985a59adfb4eab784d8a298383836040516102b993929190610b77565b60405180910390a1505050565b6102ce61042c565b6000826040516102de91906108e2565b908152602001604051809103902060405180606001604052908160008201805461030790610875565b80601f016020809104026020016040519081016040528092919081815260200182805461033390610875565b80156103805780601f1061035557610100808354040283529160200191610380565b820191906000526020600020905b81548152906001019060200180831161036357829003601f168201915b5050505050815260200160018201805461039990610875565b80601f01602080910402602001604051908101604052809291908181526020018280546103c590610875565b80156104125780601f106103e757610100808354040283529160200191610412565b820191906000526020600020905b8154815290600101906020018083116103f557829003601f168201915b505050505081526020016002820154815250509050919050565b60405180606001604052806060815260200160608152602001600081525090565b6000604051905090565b600080fd5b600080fd5b600080fd5b600080fd5b6000601f19601f8301169050919050565b7f4e487b7100000000000000000000000000000000000000000000000000000000600052604160045260246000fd5b6104b48261046b565b810181811067ffffffffffffffff821117156104d3576104d261047c565b5b80604052505050565b60006104e661044d565b90506104f282826104ab565b919050565b600067ffffffffffffffff8211156105125761051161047c565b5b61051b8261046b565b9050602081019050919050565b82818337600083830152505050565b600061054a610545846104f7565b6104dc565b90508281526020810184848401111561056657610565610466565b5b610571848285610528565b509392505050565b600082601f83011261058e5761058d610461565b5b813561059e848260208601610537565b91505092915050565b6000602082840312156105bd576105bc610457565b5b600082013567ffffffffffffffff8111156105db576105da61045c565b5b6105e784828501610579565b91505092915050565b600081519050919050565b600082825260208201905092915050565b60005b8381101561062a57808201518184015260208101905061060f565b60008484015250505050565b6000610641826105f0565b61064b81856105fb565b935061065b81856020860161060c565b6106648161046b565b840191505092915050565b6000819050919050565b6106828161066f565b82525050565b600060608201905081810360008301526106a28186610636565b905081810360208301526106b68185610636565b90506106c56040830184610679565b949350505050565b6000806000606084860312156106e6576106e5610457565b5b600084013567ffffffffffffffff8111156107045761070361045c565b5b61071086828701610579565b935050602084013567ffffffffffffffff8111156107315761073061045c565b5b61073d86828701610579565b925050604084013567ffffffffffffffff81111561075e5761075d61045c565b5b61076a86828701610579565b9150509250925092565b600082825260208201905092915050565b6000610790826105f0565b61079a8185610774565b93506107aa81856020860161060c565b6107b38161046b565b840191505092915050565b6107c78161066f565b82525050565b600060608301600083015184820360008601526107ea8282610785565b915050602083015184820360208601526108048282610785565b915050604083015161081960408601826107be565b508091505092915050565b6000602082019050818103600083015261083e81846107cd565b905092915050565b7f4e487b7100000000000000000000000000000000000000000000000000000000600052602260045260246000fd5b6000600282049050600182168061088d57607f821691505b6020821081036108a05761089f610846565b5b50919050565b600081905092915050565b60006108bc826105f0565b6108c681856108a6565b93506108d681856020860161060c565b80840191505092915050565b60006108ee82846108b1565b915081905092915050565b60008190508160005260206000209050919050565b60006020601f8301049050919050565b600082821b905092915050565b60006008830261095b7fffffffffffffffffffffffffffffffffffffffffffffffffffffffffffffffff8261091e565b610965868361091e565b95508019841693508086168417925050509392505050565b6000819050919050565b60006109a261099d6109988461066f565b61097d565b61066f565b9050919050565b6000819050919050565b6109bc83610987565b6109d06109c8826109a9565b84845461092b565b825550505050565b600090565b6109e56109d8565b6109f08184846109b3565b505050565b5b81811015610a1457610a096000826109dd565b6001810190506109f6565b5050565b601f821115610a5957610a2a816108f9565b610a338461090e565b81016020851015610a42578190505b610a56610a4e8561090e565b8301826109f5565b50505b505050565b600082821c905092915050565b6000610a7c60001984600802610a5e565b1980831691505092915050565b6000610a958383610a6b565b9150826002028217905092915050565b610aae826105f0565b67ffffffffffffffff811115610ac757610ac661047c565b5b610ad18254610875565b610adc828285610a18565b600060209050601f831160018114610b0f5760008415610afd578287015190505b610b078582610a89565b865550610b6f565b601f198416610b1d866108f9565b60005b82811015610b4557848901518255600182019150602085019450602081019050610b20565b86831015610b625784890151610b5e601f891682610a6b565b8355505b6001600288020188555050505b505050505050565b60006060820190508181036000830152610b918186610636565b90508181036020830152610ba58185610636565b90508181036040830152610bb98184610636565b905094935050505056fea2646970667358221220bf89937479541ff6bbb4fd217bfecd3e7d0d403c7a554375bf65ce0d1a68030164736f6c63430008140033",
  "linkReferences": {},
  "deployedLinkReferences": {}
}