{
  "_format": "hh-sol-artifact-1",
  "contractName": "TrustChain",
  "sourceName": "contracts/TrustChain.sol",
  "abi": [
    {
      "anonymous": false,
      "inputs": [
        {
          "indexed": false,
          "internalType": "string",
          "name": "studentId",
          "type": "string"
        },
        {
          "indexed": false,
          "internalType": "string",
          "name": "studentName",
          "type": "string"
        },
        {
          "indexed": false,
          "internalType": "string",
          "name": "certificateHash",
          "type": "string"
        }
      ],
      "name": "CertificateRecorded",
      "type": "event"
    },
    {
      "inputs": [
        {
          "internalType": "string",
          "name": "",
          "type": "string"
        }
      ],
      "name": "certificates",
      "outputs": [
        {
          "internalType": "string",
          "name": "studentId",
          "type": "string"
        },
        {
          "internalType": "string",
          "name": "studentName",
          "type": "string"
        },
        {
          "internalType": "string",
          "name": "certificateHash",
          "type": "string"
        },
        {
          "internalType": "uint256",
          "name": "timestamp",
          "type": "uint256"
        }
      ],
      "stateMutability": "view",
      "type": "function"
    },
    {
      "inputs": [
        {
          "internalType": "string",
          "name": "studentId",
          "type": "string"
        }
      ],
      "name": "getCertificate",
      "outputs": [
        {
          "components": [
            {
              "internalType": "string",
              "name": "studentId",
              "type": "string"
            },
            {
              "internalType": "string",
              "name": "studentName",
              "type": "string"
            },
            {
              "internalType": "string",
              "name": "certificateHash",
              "type": "string"
            },
            {
              "internalType": "uint256",
              "name": "timestamp",
              "type": "uint256"
            }
          ],
          "internalType": "struct TrustChain.Certificate",
          "name": "",
          "type": "tuple"
        }
      ],
      "stateMutability": "view",
      "type": "function"
    },
    {
      "inputs": [
        {
          "internalType": "string",
          "name": "studentId",
          "type": "string"
        },
        {
          "internalType": "string",
          "name": "studentName",
          "type": "string"
        },
        {
          "internalType": "string",
          "name": "certificateHash",
          "type": "string"
        }
      ],
      "name": "recordCertificate",
      "outputs": [],
      "stateMutability": "nonpayable",
      "type": "function"
    }
  ],
  "bytecode": "0x608060405234801561001057600080fd5b50610d6c806100206000396000f3fe608060405234801561001057600080fd5b50600436106100415760003560e01c80638f2b91ea146100465780638f9289a614610079578063ed0f2e7514610095575b600080fd5b610060600480360381019061005b91906106eb565b6100c5565b60405161007094939291906107cc565b60405180910390f35b610093600480360381019061008e9190610826565b6102a3565b005b6100af60048036038101906100aa91906106eb565b610371565b6040516100bc9190610997565b60405180910390f35b6000818051602081018201805184825260208301602085012081835280955050505050506000915090508060000180546100fe906109e8565b80601f016020809104026020016040519081016040528092919081815260200182805461012a906109e8565b80156101775780601f1061014c57610100808354040283529160200191610177565b820191906000526020600020905b81548152906001019060200180831161015a57829003601f168201915b50505050509080600101805461018c906109e8565b80601f01602080910402602001604051908101604052809291908181526020018280546101b8906109e8565b80156102055780601f106101da57610100808354040283529160200191610205565b820191906000526020600020905b8154815290600101906020018083116101e857829003601f168201915b50505050509080600201805461021a906109e8565b80601f0160208091040260200160405190810160405280929190818152602001828054610246906109e8565b80156102935780601f1061026857610100808354040283529160200191610293565b820191906000526020600020905b81548152906001019060200180831161027657829003601f168201915b5050505050908060030154905084565b6040518060800160405280848152602001838152602001828152602001428152506000846040516102d49190610a55565b908152602001604051809103902060008201518160000190816102f79190610c18565b50602082015181600101908161030d9190610c18565b5060408201518160020190816103239190610c18565b50606082015181600301559050507f0f871c3e3609f10b16b20c290a9b6de5f771a9fc20985a59adfb4eab784d8a2983838360405161036493929190610cea565b60405180910390a1505050565b610379610569565b6000826040516103899190610a55565b90815260200160405180910390206040518060800160405290816000820180546103b2906109e8565b80601f01602080910402602001604051908101604052809291908181526020018280546103de906109e8565b801561042b5780601f106104005761010080835404028352916020019161042b565b820191906000526020600020905b81548152906001019060200180831161040e57829003601f168201915b50505050508152602001600182018054610444906109e8565b80601f0160208091040260200160405190810160405280929190818152602001828054610470906109e8565b80156104bd5780601f10610492576101008083540402835291602001916104bd565b820191906000526020600020905b8154815290600101906020018083116104a057829003601f168201915b505050505081526020016002820180546104d6906109e8565b80601f0160208091040260200160405190810160405280929190818152602001828054610502906109e8565b801561054f5780601f106105245761010080835404028352916020019161054f565b820191906000526020600020905b81548152906001019060200180831161053257829003601f168201915b505050505081526020016003820154815250509050919050565b6040518060800160405280606081526020016060815260200160608152602001600081525090565b6000604051905090565b600080fd5b600080fd5b600080fd5b600080fd5b6000601f19601f8301169050919050565b7f4e487b7100000000000000000000000000000000000000000000000000000000600052604160045260246000fd5b6105f8826105af565b810181811067ffffffffffffffff82111715610617576106166105c0565b5b80604052505050565b600061062a610591565b905061063682826105ef565b919050565b600067ffffffffffffffff821115610656576106556105c0565b5b61065f826105af565b9050602081019050919050565b82818337600083830152505050565b600061068e6106898461063b565b610620565b9050828152602081018484840111156106aa576106a96105aa565b5b6106b584828561066c565b509392505050565b600082601f8301126106d2576106d16105a5565b5b81356106e284826020860161067b565b91505092915050565b6000602082840312156107015761070061059b565b5b600082013567ffffffffffffffff81111561071f5761071e6105a0565b5b61072b848285016106bd565b91505092915050565b600081519050919050565b600082825260208201905092915050565b60005b8381101561076e578082015181840152602081019050610753565b60008484015250505050565b600061078582610734565b61078f818561073f565b935061079f818560208601610750565b6107a8816105af565b840191505092915050565b6000819050919050565b6107c6816107b3565b82525050565b600060808201905081810360008301526107e6818761077a565b905081810360208301526107fa818661077a565b9050818103604083015261080e818561077a565b905061081d60608301846107bd565b95945050505050565b60008060006060848603121561083f5761083e61059b565b5b600084013567ffffffffffffffff81111561085d5761085c6105a0565b5b610869868287016106bd565b935050602084013567ffffffffffffffff81111561088a576108896105a0565b5b610896868287016106bd565b925050604084013567ffffffffffffffff8111156108b7576108b66105a0565b5b6108c3868287016106bd565b9150509250925092565b600082825260208201905092915050565b60006108e982610734565b6108f381856108cd565b9350610903818560208601610750565b61090c816105af565b840191505092915050565b610920816107b3565b82525050565b6000608083016000830151848203600086015261094382826108de565b9150506020830151848203602086015261095d82826108de565b9150506040830151848203604086015261097782826108de565b915050606083015161098c6060860182610917565b508091505092915050565b600060208201905081810360008301526109b18184610926565b905092915050565b7f4e487b7100000000000000000000000000000000000000000000000000000000600052602260045260246000fd5b60006002820490506001821680610a0057607f821691505b602082108103610a1357610a126109b9565b5b50919050565b600081905092915050565b6000610a2f82610734565b610a398185610a19565b9350610a49818560208601610750565b80840191505092915050565b6000610a618284610a24565b915081905092915050565b60008190508160005260206000209050919050565b60006020601f8301049050919050565b600082821b905092915050565b600060088302610ace7fffffffffffffffffffffffffffffffffffffffffffffffffffffffffffffffff82610a91565b610ad88683610a91565b95508019841693508086168417925050509392505050565b6000819050919050565b6000610b15610b10610b0b846107b3565b610af0565b6107b3565b9050919050565b6000819050919050565b610b2f83610afa565b610b43610b3b82610b1c565b848454610a9e565b825550505050565b600090565b610b58610b4b565b610b63818484610b26565b505050565b5b81811015610b8757610b7c600082610b50565b600181019050610b69565b5050565b601f821115610bcc57610b9d81610a6c565b610ba684610a81565b81016020851015610bb5578190505b610bc9610bc185610a81565b830182610b68565b50505b505050565b600082821c905092915050565b6000610bef60001984600802610bd1565b1980831691505092915050565b6000610c088383610bde565b9150826002028217905092915050565b610c2182610734565b67ffffffffffffffff811115610c3a57610c396105c0565b5b610c4482546109e8565b610c4f828285610b8b565b600060209050601f831160018114610c825760008415610c70578287015190505b610c7a8582610bfc565b865550610ce2565b601f198416610c9086610a6c565b60005b82811015610cb857848901518255600182019150602085019450602081019050610c93565b86831015610cd55784890151610cd1601f891682610bde565b8355505b6001600288020188555050505b505050505050565b60006060820190508181036000830152610d04818661077a565b90508181036020830152610d18818561077a565b90508181036040830152610d2c818461077a565b905094935050505056fea2646970667358221220e9bf4258bfcd4ae1c77ecd67156a627826bc626fcc7c4e7c3de7fd41f436914a64736f6c63430008140033",
  "linkReferences": {},
  "deployedLinkReferences": {}
}